{
  "contractName": "ProductRegister",
  "abi": [
    {
      "inputs": [],
      "stateMutability": "nonpayable",
      "type": "constructor"
    },
    {
      "anonymous": false,
      "inputs": [
        {
          "indexed": false,
          "internalType": "string",
          "name": "name",
          "type": "string"
        },
        {
          "indexed": false,
          "internalType": "uint256",
          "name": "amount",
          "type": "uint256"
        },
        {
          "indexed": false,
          "internalType": "string",
          "name": "product_url",
          "type": "string"
        }
      ],
      "name": "AddList",
      "type": "event"
    },
    {
      "anonymous": false,
      "inputs": [
        {
          "indexed": true,
          "internalType": "address",
          "name": "owner",
          "type": "address"
        },
        {
          "indexed": true,
          "internalType": "address",
          "name": "spender",
          "type": "address"
        },
        {
          "indexed": false,
          "internalType": "uint256",
          "name": "value",
          "type": "uint256"
        }
      ],
      "name": "Approval",
      "type": "event"
    },
    {
      "anonymous": false,
      "inputs": [
        {
          "indexed": false,
          "internalType": "address",
          "name": "_owner",
          "type": "address"
        },
        {
          "indexed": false,
          "internalType": "uint256",
          "name": "_productId",
          "type": "uint256"
        }
      ],
      "name": "ProductCreate",
      "type": "event"
    },
    {
      "anonymous": false,
      "inputs": [
        {
          "indexed": false,
          "internalType": "address",
          "name": "from",
          "type": "address"
        },
        {
          "indexed": false,
          "internalType": "address",
          "name": "to",
          "type": "address"
        },
        {
          "indexed": false,
          "internalType": "uint256",
          "name": "price",
          "type": "uint256"
        }
      ],
      "name": "Sent",
      "type": "event"
    },
    {
      "anonymous": false,
      "inputs": [
        {
          "indexed": false,
          "internalType": "address",
          "name": "_owner",
          "type": "address"
        },
        {
          "indexed": false,
          "internalType": "uint256",
          "name": "_index",
          "type": "uint256"
        }
      ],
      "name": "TransactionCreate",
      "type": "event"
    },
    {
      "anonymous": false,
      "inputs": [
        {
          "indexed": true,
          "internalType": "address",
          "name": "from",
          "type": "address"
        },
        {
          "indexed": true,
          "internalType": "address",
          "name": "to",
          "type": "address"
        },
        {
          "indexed": false,
          "internalType": "uint256",
          "name": "value",
          "type": "uint256"
        }
      ],
      "name": "Transfer",
      "type": "event"
    },
    {
      "inputs": [],
      "name": "INITIAL_SUPPLY",
      "outputs": [
        {
          "internalType": "uint256",
          "name": "",
          "type": "uint256"
        }
      ],
      "stateMutability": "view",
      "type": "function",
      "constant": true
    },
    {
      "inputs": [
        {
          "internalType": "address",
          "name": "owner",
          "type": "address"
        },
        {
          "internalType": "address",
          "name": "spender",
          "type": "address"
        }
      ],
      "name": "allowance",
      "outputs": [
        {
          "internalType": "uint256",
          "name": "",
          "type": "uint256"
        }
      ],
      "stateMutability": "view",
      "type": "function",
      "constant": true
    },
    {
      "inputs": [
        {
          "internalType": "address",
          "name": "spender",
          "type": "address"
        },
        {
          "internalType": "uint256",
          "name": "amount",
          "type": "uint256"
        }
      ],
      "name": "approve",
      "outputs": [
        {
          "internalType": "bool",
          "name": "",
          "type": "bool"
        }
      ],
      "stateMutability": "nonpayable",
      "type": "function"
    },
    {
      "inputs": [
        {
          "internalType": "address",
          "name": "account",
          "type": "address"
        }
      ],
      "name": "balanceOf",
      "outputs": [
        {
          "internalType": "uint256",
          "name": "",
          "type": "uint256"
        }
      ],
      "stateMutability": "view",
      "type": "function",
      "constant": true
    },
    {
      "inputs": [],
      "name": "decimals",
      "outputs": [
        {
          "internalType": "uint8",
          "name": "",
          "type": "uint8"
        }
      ],
      "stateMutability": "view",
      "type": "function",
      "constant": true
    },
    {
      "inputs": [
        {
          "internalType": "address",
          "name": "spender",
          "type": "address"
        },
        {
          "internalType": "uint256",
          "name": "subtractedValue",
          "type": "uint256"
        }
      ],
      "name": "decreaseAllowance",
      "outputs": [
        {
          "internalType": "bool",
          "name": "",
          "type": "bool"
        }
      ],
      "stateMutability": "nonpayable",
      "type": "function"
    },
    {
      "inputs": [
        {
          "internalType": "address",
          "name": "spender",
          "type": "address"
        },
        {
          "internalType": "uint256",
          "name": "addedValue",
          "type": "uint256"
        }
      ],
      "name": "increaseAllowance",
      "outputs": [
        {
          "internalType": "bool",
          "name": "",
          "type": "bool"
        }
      ],
      "stateMutability": "nonpayable",
      "type": "function"
    },
    {
      "inputs": [],
      "name": "my_addr",
      "outputs": [
        {
          "internalType": "address",
          "name": "",
          "type": "address"
        }
      ],
      "stateMutability": "view",
      "type": "function",
      "constant": true
    },
    {
      "inputs": [],
      "name": "name",
      "outputs": [
        {
          "internalType": "string",
          "name": "",
          "type": "string"
        }
      ],
      "stateMutability": "view",
      "type": "function",
      "constant": true
    },
    {
      "inputs": [
        {
          "internalType": "uint256",
          "name": "",
          "type": "uint256"
        }
      ],
      "name": "product_list",
      "outputs": [
        {
          "internalType": "address",
          "name": "owner",
          "type": "address"
        },
        {
          "internalType": "string",
          "name": "name",
          "type": "string"
        },
        {
          "internalType": "uint256",
          "name": "price",
          "type": "uint256"
        },
        {
          "internalType": "string",
          "name": "product_url",
          "type": "string"
        },
        {
          "internalType": "bool",
          "name": "active",
          "type": "bool"
        },
        {
          "internalType": "uint256",
          "name": "product_n",
          "type": "uint256"
        },
        {
          "internalType": "string",
          "name": "product_name",
          "type": "string"
        },
        {
          "internalType": "string",
          "name": "description",
          "type": "string"
        }
      ],
      "stateMutability": "view",
      "type": "function",
      "constant": true
    },
    {
      "inputs": [],
      "name": "symbol",
      "outputs": [
        {
          "internalType": "string",
          "name": "",
          "type": "string"
        }
      ],
      "stateMutability": "view",
      "type": "function",
      "constant": true
    },
    {
      "inputs": [],
      "name": "totalSupply",
      "outputs": [
        {
          "internalType": "uint256",
          "name": "",
          "type": "uint256"
        }
      ],
      "stateMutability": "view",
      "type": "function",
      "constant": true
    },
    {
      "inputs": [
        {
          "internalType": "uint256",
          "name": "",
          "type": "uint256"
        }
      ],
      "name": "transaction_list",
      "outputs": [
        {
          "internalType": "address",
          "name": "buyer",
          "type": "address"
        },
        {
          "internalType": "address",
          "name": "seller",
          "type": "address"
        },
        {
          "internalType": "uint256",
          "name": "price",
          "type": "uint256"
        },
        {
          "internalType": "uint256",
          "name": "tranjection_n",
          "type": "uint256"
        },
        {
          "internalType": "uint256",
          "name": "my_coin",
          "type": "uint256"
        }
      ],
      "stateMutability": "view",
      "type": "function",
      "constant": true
    },
    {
      "inputs": [
        {
          "internalType": "address",
          "name": "recipient",
          "type": "address"
        },
        {
          "internalType": "uint256",
          "name": "amount",
          "type": "uint256"
        }
      ],
      "name": "transfer",
      "outputs": [
        {
          "internalType": "bool",
          "name": "",
          "type": "bool"
        }
      ],
      "stateMutability": "nonpayable",
      "type": "function"
    },
    {
      "inputs": [
        {
          "internalType": "address",
          "name": "sender",
          "type": "address"
        },
        {
          "internalType": "address",
          "name": "recipient",
          "type": "address"
        },
        {
          "internalType": "uint256",
          "name": "amount",
          "type": "uint256"
        }
      ],
      "name": "transferFrom",
      "outputs": [
        {
          "internalType": "bool",
          "name": "",
          "type": "bool"
        }
      ],
      "stateMutability": "nonpayable",
      "type": "function"
    },
    {
      "inputs": [
        {
          "internalType": "string",
          "name": "_name",
          "type": "string"
        },
        {
          "internalType": "uint256",
          "name": "_price",
          "type": "uint256"
        },
        {
          "internalType": "string",
          "name": "_pname",
          "type": "string"
        },
        {
          "internalType": "string",
          "name": "_description",
          "type": "string"
        },
        {
          "internalType": "string",
          "name": "_url",
          "type": "string"
        }
      ],
      "name": "addProduct",
      "outputs": [],
      "stateMutability": "nonpayable",
      "type": "function"
    },
    {
      "inputs": [],
      "name": "viewProductList",
      "outputs": [],
      "stateMutability": "nonpayable",
      "type": "function"
    },
    {
      "inputs": [],
      "name": "getCount",
      "outputs": [
        {
          "internalType": "uint256",
          "name": "",
          "type": "uint256"
        }
      ],
      "stateMutability": "view",
      "type": "function",
      "constant": true
    },
    {
      "inputs": [
        {
          "internalType": "uint256",
          "name": "_product_n",
          "type": "uint256"
        }
      ],
      "name": "getProductList",
      "outputs": [
        {
          "internalType": "string",
          "name": "name",
          "type": "string"
        },
        {
          "internalType": "uint256",
          "name": "price",
          "type": "uint256"
        },
        {
          "internalType": "uint256",
          "name": "product_id",
          "type": "uint256"
        },
        {
          "internalType": "address",
          "name": "r_address",
          "type": "address"
        },
        {
          "internalType": "string",
          "name": "r_photo_url",
          "type": "string"
        },
        {
          "internalType": "bool",
          "name": "r_active",
          "type": "bool"
        },
        {
          "internalType": "string",
          "name": "r_description",
          "type": "string"
        },
        {
          "internalType": "string",
          "name": "r_pname",
          "type": "string"
        }
      ],
      "stateMutability": "view",
      "type": "function",
      "constant": true
    },
    {
      "inputs": [
        {
          "internalType": "address",
          "name": "my_add",
          "type": "address"
        }
      ],
      "name": "checkBalance",
      "outputs": [
        {
          "internalType": "uint256",
          "name": "",
          "type": "uint256"
        }
      ],
      "stateMutability": "view",
      "type": "function",
      "constant": true
    },
    {
      "inputs": [
        {
          "internalType": "address",
          "name": "my_add",
          "type": "address"
        },
        {
          "internalType": "address",
          "name": "sell_add",
          "type": "address"
        },
        {
          "internalType": "uint256",
          "name": "sell_price",
          "type": "uint256"
        }
      ],
      "name": "addtransactionList",
      "outputs": [],
      "stateMutability": "nonpayable",
      "type": "function"
    }
  ],
  "bytecode": "0x6080604052612ee0600a553480156200001757600080fd5b506040518060400160405280600881526020017f5475746f7269616c0000000000000000000000000000000000000000000000008152506040518060400160405280600281526020017f545400000000000000000000000000000000000000000000000000000000000081525081600390805190602001906200009c9291906200035a565b508060049080519060200190620000b59291906200035a565b506012600560006101000a81548160ff021916908360ff1602179055505050620000e833600a54620000ee60201b60201c565b62000400565b600073ffffffffffffffffffffffffffffffffffffffff168273ffffffffffffffffffffffffffffffffffffffff16141562000192576040517f08c379a000000000000000000000000000000000000000000000000000000000815260040180806020018281038252601f8152602001807f45524332303a206d696e7420746f20746865207a65726f20616464726573730081525060200191505060405180910390fd5b620001a660008383620002cc60201b60201c565b620001c281600254620002d160201b620020af1790919060201c565b60028190555062000220816000808573ffffffffffffffffffffffffffffffffffffffff1673ffffffffffffffffffffffffffffffffffffffff16815260200190815260200160002054620002d160201b620020af1790919060201c565b6000808473ffffffffffffffffffffffffffffffffffffffff1673ffffffffffffffffffffffffffffffffffffffff168152602001908152602001600020819055508173ffffffffffffffffffffffffffffffffffffffff16600073ffffffffffffffffffffffffffffffffffffffff167fddf252ad1be2c89b69c2b068fc378daa952ba7f163c4a11628f55a4df523b3ef836040518082815260200191505060405180910390a35050565b505050565b60008082840190508381101562000350576040517f08c379a000000000000000000000000000000000000000000000000000000000815260040180806020018281038252601b8152602001807f536166654d6174683a206164646974696f6e206f766572666c6f77000000000081525060200191505060405180910390fd5b8091505092915050565b828054600181600116156101000203166002900490600052602060002090601f016020900481019282601f106200039d57805160ff1916838001178555620003ce565b82800160010185558215620003ce579182015b82811115620003cd578251825591602001919060010190620003b0565b5b509050620003dd9190620003e1565b5090565b5b80821115620003fc576000816000905550600101620003e2565b5090565b61294880620004106000396000f3fe608060405234801561001057600080fd5b50600436106101375760003560e01c80636de94427116100b8578063a87d942c1161007c578063a87d942c14610a3c578063a9059cbb14610a5a578063b36eb09714610abe578063d69c8e1714610b2c578063dd62ed3e14610b60578063eb5ba90f14610bd857610137565b80636de944271461065457806370a08231146106de57806395d89b41146107365780639a37dea4146107b9578063a457c2d7146109d857610137565b806325c44da5116100ff57806325c44da51461054f5780632ff2e9dc14610559578063313ce5671461057757806339509351146105985780635f515226146105fc57610137565b806302879f9c1461013c57806306fdde03146103c6578063095ea7b31461044957806318160ddd146104ad57806323b872dd146104cb575b600080fd5b6103c4600480360360a081101561015257600080fd5b810190808035906020019064010000000081111561016f57600080fd5b82018360208201111561018157600080fd5b803590602001918460018302840111640100000000831117156101a357600080fd5b91908080601f016020809104026020016040519081016040528093929190818152602001838380828437600081840152601f19601f820116905080830192505050505050509192919290803590602001909291908035906020019064010000000081111561021057600080fd5b82018360208201111561022257600080fd5b8035906020019184600183028401116401000000008311171561024457600080fd5b91908080601f016020809104026020016040519081016040528093929190818152602001838380828437600081840152601f19601f820116905080830192505050505050509192919290803590602001906401000000008111156102a757600080fd5b8201836020820111156102b957600080fd5b803590602001918460018302840111640100000000831117156102db57600080fd5b91908080601f016020809104026020016040519081016040528093929190818152602001838380828437600081840152601f19601f8201169050808301925050505050505091929192908035906020019064010000000081111561033e57600080fd5b82018360208201111561035057600080fd5b8035906020019184600183028401116401000000008311171561037257600080fd5b91908080601f016020809104026020016040519081016040528093929190818152602001838380828437600081840152601f19601f820116905080830192505050505050509192919290505050610df7565b005b6103ce611018565b6040518080602001828103825283818151815260200191508051906020019080838360005b8381101561040e5780820151818401526020810190506103f3565b50505050905090810190601f16801561043b5780820380516001836020036101000a031916815260200191505b509250505060405180910390f35b6104956004803603604081101561045f57600080fd5b81019080803573ffffffffffffffffffffffffffffffffffffffff169060200190929190803590602001909291905050506110ba565b60405180821515815260200191505060405180910390f35b6104b56110d8565b6040518082815260200191505060405180910390f35b610537600480360360608110156104e157600080fd5b81019080803573ffffffffffffffffffffffffffffffffffffffff169060200190929190803573ffffffffffffffffffffffffffffffffffffffff169060200190929190803590602001909291905050506110e2565b60405180821515815260200191505060405180910390f35b6105576111bb565b005b61056161125c565b6040518082815260200191505060405180910390f35b61057f611262565b604051808260ff16815260200191505060405180910390f35b6105e4600480360360408110156105ae57600080fd5b81019080803573ffffffffffffffffffffffffffffffffffffffff16906020019092919080359060200190929190505050611279565b60405180821515815260200191505060405180910390f35b61063e6004803603602081101561061257600080fd5b81019080803573ffffffffffffffffffffffffffffffffffffffff16906020019092919050505061132c565b6040518082815260200191505060405180910390f35b6106806004803603602081101561066a57600080fd5b8101908080359060200190929190505050611375565b604051808673ffffffffffffffffffffffffffffffffffffffff1681526020018573ffffffffffffffffffffffffffffffffffffffff1681526020018481526020018381526020018281526020019550505050505060405180910390f35b610720600480360360208110156106f457600080fd5b81019080803573ffffffffffffffffffffffffffffffffffffffff1690602001909291905050506113f8565b6040518082815260200191505060405180910390f35b61073e611440565b6040518080602001828103825283818151815260200191508051906020019080838360005b8381101561077e578082015181840152602081019050610763565b50505050905090810190601f1680156107ab5780820380516001836020036101000a031916815260200191505b509250505060405180910390f35b6107e5600480360360208110156107cf57600080fd5b81019080803590602001909291905050506114e2565b60405180806020018981526020018881526020018773ffffffffffffffffffffffffffffffffffffffff168152602001806020018615158152602001806020018060200185810385528d818151815260200191508051906020019080838360005b83811015610861578082015181840152602081019050610846565b50505050905090810190601f16801561088e5780820380516001836020036101000a031916815260200191505b50858103845289818151815260200191508051906020019080838360005b838110156108c75780820151818401526020810190506108ac565b50505050905090810190601f1680156108f45780820380516001836020036101000a031916815260200191505b50858103835287818151815260200191508051906020019080838360005b8381101561092d578082015181840152602081019050610912565b50505050905090810190601f16801561095a5780820380516001836020036101000a031916815260200191505b50858103825286818151815260200191508051906020019080838360005b83811015610993578082015181840152602081019050610978565b50505050905090810190601f1680156109c05780820380516001836020036101000a031916815260200191505b509c5050505050505050505050505060405180910390f35b610a24600480360360408110156109ee57600080fd5b81019080803573ffffffffffffffffffffffffffffffffffffffff16906020019092919080359060200190929190505050611872565b60405180821515815260200191505060405180910390f35b610a4461193f565b6040518082815260200191505060405180910390f35b610aa660048036036040811015610a7057600080fd5b81019080803573ffffffffffffffffffffffffffffffffffffffff1690602001909291908035906020019092919050505061194c565b60405180821515815260200191505060405180910390f35b610b2a60048036036060811015610ad457600080fd5b81019080803573ffffffffffffffffffffffffffffffffffffffff169060200190929190803573ffffffffffffffffffffffffffffffffffffffff1690602001909291908035906020019092919050505061196a565b005b610b34611d20565b604051808273ffffffffffffffffffffffffffffffffffffffff16815260200191505060405180910390f35b610bc260048036036040811015610b7657600080fd5b81019080803573ffffffffffffffffffffffffffffffffffffffff169060200190929190803573ffffffffffffffffffffffffffffffffffffffff169060200190929190505050611d46565b6040518082815260200191505060405180910390f35b610c0460048036036020811015610bee57600080fd5b8101908080359060200190929190505050611dcd565b604051808973ffffffffffffffffffffffffffffffffffffffff16815260200180602001888152602001806020018715158152602001868152602001806020018060200185810385528c818151815260200191508051906020019080838360005b83811015610c80578082015181840152602081019050610c65565b50505050905090810190601f168015610cad5780820380516001836020036101000a031916815260200191505b5085810384528a818151815260200191508051906020019080838360005b83811015610ce6578082015181840152602081019050610ccb565b50505050905090810190601f168015610d135780820380516001836020036101000a031916815260200191505b50858103835287818151815260200191508051906020019080838360005b83811015610d4c578082015181840152602081019050610d31565b50505050905090810190601f168015610d795780820380516001836020036101000a031916815260200191505b50858103825286818151815260200191508051906020019080838360005b83811015610db2578082015181840152602081019050610d97565b50505050905090810190601f168015610ddf5780820380516001836020036101000a031916815260200191505b509c5050505050505050505050505060405180910390f35b60006006805490509050610e096126bc565b86816020018190525033816000019073ffffffffffffffffffffffffffffffffffffffff16908173ffffffffffffffffffffffffffffffffffffffff1681525050858160400181815250506001816080019015159081151581525050828160600181905250818160a0018181525050848160c00181905250838160e00181905250600681908060018154018082558091505060019003906000526020600020906008020160009091909190915060008201518160000160006101000a81548173ffffffffffffffffffffffffffffffffffffffff021916908373ffffffffffffffffffffffffffffffffffffffff1602179055506020820151816001019080519060200190610f19929190612719565b50604082015181600201556060820151816003019080519060200190610f40929190612719565b5060808201518160040160006101000a81548160ff02191690831515021790555060a0820151816005015560c0820151816006019080519060200190610f87929190612719565b5060e0820151816007019080519060200190610fa4929190612719565b50505060006006805490501415610fba57600080fd5b7fc22068232414d5fb5b2854ad84bdd463712aed0387f18ab07c4a9cf10a741abc3383604051808373ffffffffffffffffffffffffffffffffffffffff1681526020018281526020019250505060405180910390a150505050505050565b606060038054600181600116156101000203166002900480601f0160208091040260200160405190810160405280929190818152602001828054600181600116156101000203166002900480156110b05780601f10611085576101008083540402835291602001916110b0565b820191906000526020600020905b81548152906001019060200180831161109357829003601f168201915b5050505050905090565b60006110ce6110c7612137565b848461213f565b6001905092915050565b6000600254905090565b60006110ef848484612336565b6111b0846110fb612137565b6111ab8560405180606001604052806028815260200161287d60289139600160008b73ffffffffffffffffffffffffffffffffffffffff1673ffffffffffffffffffffffffffffffffffffffff1681526020019081526020016000206000611161612137565b73ffffffffffffffffffffffffffffffffffffffff1673ffffffffffffffffffffffffffffffffffffffff168152602001908152602001600020546125f79092919063ffffffff16565b61213f565b600190509392505050565b60006006805490509050600060068054905014156111d857600080fd5b60005b818110156112585760011515600682815481106111f457fe5b906000526020600020906008020160040160009054906101000a900460ff161515141561124b576112426006828154811061122b57fe5b9060005260206000209060080201600501546114e2565b50505050505050505b80806001019150506111db565b5050565b600a5481565b6000600560009054906101000a900460ff16905090565b6000611322611286612137565b8461131d8560016000611297612137565b73ffffffffffffffffffffffffffffffffffffffff1673ffffffffffffffffffffffffffffffffffffffff16815260200190815260200160002060008973ffffffffffffffffffffffffffffffffffffffff1673ffffffffffffffffffffffffffffffffffffffff168152602001908152602001600020546120af90919063ffffffff16565b61213f565b6001905092915050565b6000600860008373ffffffffffffffffffffffffffffffffffffffff1673ffffffffffffffffffffffffffffffffffffffff168152602001908152602001600020549050919050565b6007818154811061138257fe5b90600052602060002090600502016000915090508060000160009054906101000a900473ffffffffffffffffffffffffffffffffffffffff16908060010160009054906101000a900473ffffffffffffffffffffffffffffffffffffffff16908060020154908060030154908060040154905085565b60008060008373ffffffffffffffffffffffffffffffffffffffff1673ffffffffffffffffffffffffffffffffffffffff168152602001908152602001600020549050919050565b606060048054600181600116156101000203166002900480601f0160208091040260200160405190810160405280929190818152602001828054600181600116156101000203166002900480156114d85780601f106114ad576101008083540402835291602001916114d8565b820191906000526020600020905b8154815290600101906020018083116114bb57829003601f168201915b5050505050905090565b60606000806000606060006060806114f86126bc565b60068a8154811061150557fe5b9060005260206000209060080201604051806101000160405290816000820160009054906101000a900473ffffffffffffffffffffffffffffffffffffffff1673ffffffffffffffffffffffffffffffffffffffff1673ffffffffffffffffffffffffffffffffffffffff168152602001600182018054600181600116156101000203166002900480601f01602080910402602001604051908101604052809291908181526020018280546001816001161561010002031660029004801561160e5780601f106115e35761010080835404028352916020019161160e565b820191906000526020600020905b8154815290600101906020018083116115f157829003601f168201915b5050505050815260200160028201548152602001600382018054600181600116156101000203166002900480601f0160208091040260200160405190810160405280929190818152602001828054600181600116156101000203166002900480156116ba5780601f1061168f576101008083540402835291602001916116ba565b820191906000526020600020905b81548152906001019060200180831161169d57829003601f168201915b505050505081526020016004820160009054906101000a900460ff1615151515815260200160058201548152602001600682018054600181600116156101000203166002900480601f0160208091040260200160405190810160405280929190818152602001828054600181600116156101000203166002900480156117815780601f1061175657610100808354040283529160200191611781565b820191906000526020600020905b81548152906001019060200180831161176457829003601f168201915b50505050508152602001600782018054600181600116156101000203166002900480601f0160208091040260200160405190810160405280929190818152602001828054600181600116156101000203166002900480156118235780601f106117f857610100808354040283529160200191611823565b820191906000526020600020905b81548152906001019060200180831161180657829003601f168201915b5050505050815250509050806020015181604001518260a001518360000151846060015185608001518660e001518760c001519850985098509850985098509850985050919395975091939597565b600061193561187f612137565b84611930856040518060600160405280602581526020016128ee60259139600160006118a9612137565b73ffffffffffffffffffffffffffffffffffffffff1673ffffffffffffffffffffffffffffffffffffffff16815260200190815260200160002060008a73ffffffffffffffffffffffffffffffffffffffff1673ffffffffffffffffffffffffffffffffffffffff168152602001908152602001600020546125f79092919063ffffffff16565b61213f565b6001905092915050565b6000600680549050905090565b6000611960611959612137565b8484612336565b6001905092915050565b80600860008573ffffffffffffffffffffffffffffffffffffffff1673ffffffffffffffffffffffffffffffffffffffff1681526020019081526020016000205410156119b657600080fd5b3373ffffffffffffffffffffffffffffffffffffffff168373ffffffffffffffffffffffffffffffffffffffff161480611a1b57503373ffffffffffffffffffffffffffffffffffffffff168273ffffffffffffffffffffffffffffffffffffffff16145b611a2457600080fd5b6000600960008573ffffffffffffffffffffffffffffffffffffffff1673ffffffffffffffffffffffffffffffffffffffff168152602001908152602001600020600081548092919060010191905055905081600860008673ffffffffffffffffffffffffffffffffffffffff1673ffffffffffffffffffffffffffffffffffffffff16815260200190815260200160002060008282540392505081905550611acb612799565b84816000019073ffffffffffffffffffffffffffffffffffffffff16908173ffffffffffffffffffffffffffffffffffffffff168152505083816020019073ffffffffffffffffffffffffffffffffffffffff16908173ffffffffffffffffffffffffffffffffffffffff168152505082816040018181525050600960008673ffffffffffffffffffffffffffffffffffffffff1673ffffffffffffffffffffffffffffffffffffffff16815260200190815260200160002054816060018181525050600860008673ffffffffffffffffffffffffffffffffffffffff1673ffffffffffffffffffffffffffffffffffffffff16815260200190815260200160002054816080018181525050600781908060018154018082558091505060019003906000526020600020906005020160009091909190915060008201518160000160006101000a81548173ffffffffffffffffffffffffffffffffffffffff021916908373ffffffffffffffffffffffffffffffffffffffff16021790555060208201518160010160006101000a81548173ffffffffffffffffffffffffffffffffffffffff021916908373ffffffffffffffffffffffffffffffffffffffff160217905550604082015181600201556060820151816003015560808201518160040155505060006007805490501415611cc457600080fd5b7f83077cf794758b00897eab1e229f462321d890f36bfd38228d43880c6778f86a3383604051808373ffffffffffffffffffffffffffffffffffffffff1681526020018281526020019250505060405180910390a15050505050565b600560019054906101000a900473ffffffffffffffffffffffffffffffffffffffff1681565b6000600160008473ffffffffffffffffffffffffffffffffffffffff1673ffffffffffffffffffffffffffffffffffffffff16815260200190815260200160002060008373ffffffffffffffffffffffffffffffffffffffff1673ffffffffffffffffffffffffffffffffffffffff16815260200190815260200160002054905092915050565b60068181548110611dda57fe5b90600052602060002090600802016000915090508060000160009054906101000a900473ffffffffffffffffffffffffffffffffffffffff1690806001018054600181600116156101000203166002900480601f016020809104026020016040519081016040528092919081815260200182805460018160011615610100020316600290048015611eac5780601f10611e8157610100808354040283529160200191611eac565b820191906000526020600020905b815481529060010190602001808311611e8f57829003601f168201915b505050505090806002015490806003018054600181600116156101000203166002900480601f016020809104026020016040519081016040528092919081815260200182805460018160011615610100020316600290048015611f505780601f10611f2557610100808354040283529160200191611f50565b820191906000526020600020905b815481529060010190602001808311611f3357829003601f168201915b5050505050908060040160009054906101000a900460ff1690806005015490806006018054600181600116156101000203166002900480601f0160208091040260200160405190810160405280929190818152602001828054600181600116156101000203166002900480156120075780601f10611fdc57610100808354040283529160200191612007565b820191906000526020600020905b815481529060010190602001808311611fea57829003601f168201915b505050505090806007018054600181600116156101000203166002900480601f0160208091040260200160405190810160405280929190818152602001828054600181600116156101000203166002900480156120a55780601f1061207a576101008083540402835291602001916120a5565b820191906000526020600020905b81548152906001019060200180831161208857829003601f168201915b5050505050905088565b60008082840190508381101561212d576040517f08c379a000000000000000000000000000000000000000000000000000000000815260040180806020018281038252601b8152602001807f536166654d6174683a206164646974696f6e206f766572666c6f77000000000081525060200191505060405180910390fd5b8091505092915050565b600033905090565b600073ffffffffffffffffffffffffffffffffffffffff168373ffffffffffffffffffffffffffffffffffffffff1614156121c5576040517f08c379a00000000000000000000000000000000000000000000000000000000081526004018080602001828103825260248152602001806128ca6024913960400191505060405180910390fd5b600073ffffffffffffffffffffffffffffffffffffffff168273ffffffffffffffffffffffffffffffffffffffff16141561224b576040517f08c379a00000000000000000000000000000000000000000000000000000000081526004018080602001828103825260228152602001806128356022913960400191505060405180910390fd5b80600160008573ffffffffffffffffffffffffffffffffffffffff1673ffffffffffffffffffffffffffffffffffffffff16815260200190815260200160002060008473ffffffffffffffffffffffffffffffffffffffff1673ffffffffffffffffffffffffffffffffffffffff168152602001908152602001600020819055508173ffffffffffffffffffffffffffffffffffffffff168373ffffffffffffffffffffffffffffffffffffffff167f8c5be1e5ebec7d5bd14f71427d1e84f3dd0314c0f7b2291e5b200ac8c7c3b925836040518082815260200191505060405180910390a3505050565b600073ffffffffffffffffffffffffffffffffffffffff168373ffffffffffffffffffffffffffffffffffffffff1614156123bc576040517f08c379a00000000000000000000000000000000000000000000000000000000081526004018080602001828103825260258152602001806128a56025913960400191505060405180910390fd5b600073ffffffffffffffffffffffffffffffffffffffff168273ffffffffffffffffffffffffffffffffffffffff161415612442576040517f08c379a00000000000000000000000000000000000000000000000000000000081526004018080602001828103825260238152602001806128126023913960400191505060405180910390fd5b61244d8383836126b7565b6124b881604051806060016040528060268152602001612857602691396000808773ffffffffffffffffffffffffffffffffffffffff1673ffffffffffffffffffffffffffffffffffffffff168152602001908152602001600020546125f79092919063ffffffff16565b6000808573ffffffffffffffffffffffffffffffffffffffff1673ffffffffffffffffffffffffffffffffffffffff1681526020019081526020016000208190555061254b816000808573ffffffffffffffffffffffffffffffffffffffff1673ffffffffffffffffffffffffffffffffffffffff168152602001908152602001600020546120af90919063ffffffff16565b6000808473ffffffffffffffffffffffffffffffffffffffff1673ffffffffffffffffffffffffffffffffffffffff168152602001908152602001600020819055508173ffffffffffffffffffffffffffffffffffffffff168373ffffffffffffffffffffffffffffffffffffffff167fddf252ad1be2c89b69c2b068fc378daa952ba7f163c4a11628f55a4df523b3ef836040518082815260200191505060405180910390a3505050565b60008383111582906126a4576040517f08c379a00000000000000000000000000000000000000000000000000000000081526004018080602001828103825283818151815260200191508051906020019080838360005b8381101561266957808201518184015260208101905061264e565b50505050905090810190601f1680156126965780820380516001836020036101000a031916815260200191505b509250505060405180910390fd5b5060008385039050809150509392505050565b505050565b604051806101000160405280600073ffffffffffffffffffffffffffffffffffffffff1681526020016060815260200160008152602001606081526020016000151581526020016000815260200160608152602001606081525090565b828054600181600116156101000203166002900490600052602060002090601f016020900481019282601f1061275a57805160ff1916838001178555612788565b82800160010185558215612788579182015b8281111561278757825182559160200191906001019061276c565b5b50905061279591906127f4565b5090565b6040518060a00160405280600073ffffffffffffffffffffffffffffffffffffffff168152602001600073ffffffffffffffffffffffffffffffffffffffff1681526020016000815260200160008152602001600081525090565b5b8082111561280d5760008160009055506001016127f5565b509056fe45524332303a207472616e7366657220746f20746865207a65726f206164647265737345524332303a20617070726f766520746f20746865207a65726f206164647265737345524332303a207472616e7366657220616d6f756e7420657863656564732062616c616e636545524332303a207472616e7366657220616d6f756e74206578636565647320616c6c6f77616e636545524332303a207472616e736665722066726f6d20746865207a65726f206164647265737345524332303a20617070726f76652066726f6d20746865207a65726f206164647265737345524332303a2064656372656173656420616c6c6f77616e63652062656c6f77207a65726fa2646970667358221220244cff44802c8e5f1b963ffed5ac6d7fc1ff8c6cf8be131a14cdc215bd87a2d064736f6c634300060c0033",
  "immutableReferences": {},
  "source": "pragma solidity  >=0.6.0 <=0.7.4;\r\n\r\n\r\nimport \"@openzeppelin/contracts/token/ERC20/ERC20.sol\";\r\ncontract  ProductRegister is ERC20{\r\n    \r\n    address public my_addr;//  \r\n    product_info[] public product_list;//  \r\n    transaction_info[] public transaction_list;//  \r\n\r\n    mapping(address=>uint256) balances;//   \r\n    mapping(address=>uint)my_index;// \r\n    //structure\r\n    struct product_info{\r\n        address  owner;//  \r\n        string  name;// \r\n        uint price;// \r\n        string product_url;\r\n        //  \r\n        bool active;//active false   , true  \r\n        uint product_n;//  \r\n        // \r\n        string product_name;//\r\n        string description;// \r\n    }\r\n\r\n    struct transaction_info{\r\n        address buyer;// ()\r\n        address seller;// \r\n        uint price;// \r\n        uint tranjection_n;//  \r\n        uint my_coin;// \r\n    }\r\n    //variable\r\n    //minter     address   160-bit\r\n    uint256 public INITIAL_SUPPLY = 12000;\r\n    constructor() public ERC20(\"Tutorial\", \"TT\") {\r\n        _mint(msg.sender, INITIAL_SUPPLY);\r\n    }\r\n\r\n    //event\r\n    //from , to  , amount \r\n    event Sent(address from,address to, uint price);\r\n    event AddList(string name,uint amount, string product_url);\r\n    event ProductCreate(address _owner,uint _productId);\r\n    event TransactionCreate(address _owner,uint _index);\r\n    //mapping\r\n    //balances  address key uint value   \r\n    \r\n\r\n\r\n    //modifier =>\r\n//function createAuction(address _repoAddress, uint256 _tokenId, string memory _auctionTitle, uint256 _price) public contractIsNFTOwner(_repoAddress, _tokenId) returns(bool) {\r\n\t\t//  auction  \r\n    function addProduct(string memory _name, uint256 _price,string memory _pname,string memory _description,string memory _url) public  {\r\n        uint productId=product_list.length;\r\n        product_info memory newInfo;\r\n        newInfo.name=_name;\r\n        newInfo.owner=msg.sender;\r\n        newInfo.price=_price;\r\n        newInfo.active=true;\r\n        newInfo.product_url=_url;\r\n        newInfo.product_n=productId;\r\n        newInfo.product_name=_pname;\r\n        newInfo.description=_description;\r\n        product_list.push(newInfo);//    \r\n        require(product_list.length!=0);//   \r\n\r\n        emit ProductCreate(msg.sender,productId);\r\n        \r\n    }\r\n    \r\n    function viewProductList() public{\r\n         uint list_size=product_list.length;//  \r\n\r\n        require(product_list.length!=0);//   \r\n\r\n         for(uint i=0;i<list_size;i++)\r\n         {  \r\n             if(product_list[i].active==true){\r\n                 getProductList(product_list[i].product_n);\r\n             }\r\n         }\r\n    }\r\n\r\n     function getCount() public view returns(uint) {\r\n        return product_list.length;\r\n\t}\r\n\r\n    function getProductList(uint _product_n) public view returns (\r\n        //uint list_size=product_list.length;//  \r\n\r\n        string memory name,\r\n        uint price,\r\n        uint product_id,//   \r\n        address r_address,\r\n        string memory r_photo_url,\r\n        bool r_active,\r\n        string memory r_description,\r\n        string memory r_pname\r\n        ){\r\n        product_info memory info = product_list[_product_n];\r\n\r\n        return (\r\n            info.name,\r\n            info.price,\r\n            info.product_n,\r\n            info.owner,\r\n            info.product_url,\r\n            info.active,\r\n            info.description,\r\n            info.product_name\r\n        );\r\n    }\r\n\r\n    function checkBalance(address my_add) public view returns (uint256){//    \r\n        return balances[my_add];\r\n    }\r\n\r\n    function addtransactionList(address my_add,address sell_add, uint sell_price) public{\r\n        \r\n\r\n        require(balances[my_add]>=sell_price);//    \r\n        require(my_add==msg.sender || sell_add ==msg.sender);\r\n        uint _index=my_index[my_add]++;//   \r\n        balances[my_add]-=sell_price;// \r\n\r\n        transaction_info memory new_transaction;\r\n        new_transaction.buyer=my_add;\r\n        new_transaction.seller=sell_add;\r\n        new_transaction.price=sell_price;\r\n        new_transaction.tranjection_n=my_index[my_add];\r\n        new_transaction.my_coin=balances[my_add];\r\n        \r\n        transaction_list.push(new_transaction);//    \r\n\r\n        require(transaction_list.length!=0);//   \r\n\r\n        emit TransactionCreate(msg.sender,_index);\r\n    }\r\n   \r\n    //event ViewList()\r\n\r\n\r\n   /* constructor(string memory name_, uint memory info_) public{\r\n        _name=name_;\r\n        _info=info_;\r\n    }\r\n    \r\n    function name() public view returns (string memory) {//  \r\n        return _name;\r\n    }\r\n\r\n    function info() public view returns (uint memory){//  \r\n        return _info;\r\n    }\r\n\r\n     function send(address recipient, uint256 amount) public virtual override returns (bool) {\r\n         require(msg.sender==minter);//   minter  \r\n        _send(_msgSender(), recipient, amount);\r\n        return true;\r\n    }\r\n\r\n    function mint(address receiver, uint amount) public{\r\n        require(msg.sender==minter);//   minter  \r\n        require(amount<1e60);\r\n        balances[receiver]+=amount;\r\n    }\r\n\r\n    function _send(address sender, address recipient, uint256 amount) internal virtual {\r\n        require(sender != address(0), \"ERC20: transfer from the zero address\");\r\n        require(recipient != address(0), \"ERC20: transfer to the zero address\");\r\n\r\n        _beforeTokenTransfer(sender, recipient, amount);\r\n\r\n        balances[sender] = balances[sender].sub(amount, \"ERC20: transfer amount exceeds balance\");\r\n        balances[recipient] = balances[recipient].add(amount);\r\n        emit Transfer(sender, recipient, amount);\r\n    }\r\n\r\n\r\n    //ERC20              \r\n    function _beforeTokenTransfer(address from, address to, uint256 amount) internal virtual { }\r\n*/\r\n}",
  "sourcePath": "C:/Users/Android/AndroidStudioProjects/SejongBlockChain/contract/contracts/ProductRegister.sol",
  "compiler": {
    "name": "solc",
    "version": "0.6.12+commit.27d51765.Emscripten.clang"
  },
  "schemaVersion": "3.3.3",
  "updatedAt": "2020-12-22T16:28:29.002Z",
  "networkType": "ethereum",
  "devdoc": {
    "kind": "dev",
    "methods": {
      "allowance(address,address)": {
        "details": "See {IERC20-allowance}."
      },
      "approve(address,uint256)": {
        "details": "See {IERC20-approve}. Requirements: - `spender` cannot be the zero address."
      },
      "balanceOf(address)": {
        "details": "See {IERC20-balanceOf}."
      },
      "decimals()": {
        "details": "Returns the number of decimals used to get its user representation. For example, if `decimals` equals `2`, a balance of `505` tokens should be displayed to a user as `5,05` (`505 / 10 ** 2`). Tokens usually opt for a value of 18, imitating the relationship between Ether and Wei. This is the value {ERC20} uses, unless {_setupDecimals} is called. NOTE: This information is only used for _display_ purposes: it in no way affects any of the arithmetic of the contract, including {IERC20-balanceOf} and {IERC20-transfer}."
      },
      "decreaseAllowance(address,uint256)": {
        "details": "Atomically decreases the allowance granted to `spender` by the caller. This is an alternative to {approve} that can be used as a mitigation for problems described in {IERC20-approve}. Emits an {Approval} event indicating the updated allowance. Requirements: - `spender` cannot be the zero address. - `spender` must have allowance for the caller of at least `subtractedValue`."
      },
      "increaseAllowance(address,uint256)": {
        "details": "Atomically increases the allowance granted to `spender` by the caller. This is an alternative to {approve} that can be used as a mitigation for problems described in {IERC20-approve}. Emits an {Approval} event indicating the updated allowance. Requirements: - `spender` cannot be the zero address."
      },
      "name()": {
        "details": "Returns the name of the token."
      },
      "symbol()": {
        "details": "Returns the symbol of the token, usually a shorter version of the name."
      },
      "totalSupply()": {
        "details": "See {IERC20-totalSupply}."
      },
      "transfer(address,uint256)": {
        "details": "See {IERC20-transfer}. Requirements: - `recipient` cannot be the zero address. - the caller must have a balance of at least `amount`."
      },
      "transferFrom(address,address,uint256)": {
        "details": "See {IERC20-transferFrom}. Emits an {Approval} event indicating the updated allowance. This is not required by the EIP. See the note at the beginning of {ERC20}. Requirements: - `sender` and `recipient` cannot be the zero address. - `sender` must have a balance of at least `amount`. - the caller must have allowance for ``sender``'s tokens of at least `amount`."
      }
    },
    "version": 1
  },
  "userdoc": {
    "kind": "user",
    "methods": {},
    "version": 1
  }
}