{
  "contractName": "Validator",
  "abi": [
    {
      "inputs": [
        {
          "internalType": "bytes32",
          "name": "msgHash",
          "type": "bytes32"
        },
        {
          "internalType": "uint8",
          "name": "v",
          "type": "uint8"
        },
        {
          "internalType": "bytes32",
          "name": "r",
          "type": "bytes32"
        },
        {
          "internalType": "bytes32",
          "name": "s",
          "type": "bytes32"
        }
      ],
      "name": "recoverAddress",
      "outputs": [
        {
          "internalType": "address",
          "name": "",
          "type": "address"
        }
      ],
      "stateMutability": "view",
      "type": "function"
    },
    {
      "inputs": [
        {
          "internalType": "address",
          "name": "addr",
          "type": "address"
        },
        {
          "internalType": "bytes32",
          "name": "msgHash",
          "type": "bytes32"
        },
        {
          "internalType": "uint8",
          "name": "v",
          "type": "uint8"
        },
        {
          "internalType": "bytes32",
          "name": "r",
          "type": "bytes32"
        },
        {
          "internalType": "bytes32",
          "name": "s",
          "type": "bytes32"
        }
      ],
      "name": "verify",
      "outputs": [
        {
          "internalType": "bool",
          "name": "",
          "type": "bool"
        }
      ],
      "stateMutability": "view",
      "type": "function"
    }
  ],
  "bytecode": "0x608060405234801561001057600080fd5b5061026e806100206000396000f3fe608060405234801561001057600080fd5b50600436106100365760003560e01c8063506535f31461003b5780638428cf83146100c0575b600080fd5b6100a8600480360360a081101561005157600080fd5b81019080803573ffffffffffffffffffffffffffffffffffffffff16906020019092919080359060200190929190803560ff1690602001909291908035906020019092919080359060200190929190505050610139565b60405180821515815260200191505060405180910390f35b61010d600480360360808110156100d657600080fd5b8101908080359060200190929190803560ff1690602001909291908035906020019092919080359060200190929190505050610180565b604051808273ffffffffffffffffffffffffffffffffffffffff16815260200191505060405180910390f35b600061014785858585610180565b73ffffffffffffffffffffffffffffffffffffffff168673ffffffffffffffffffffffffffffffffffffffff1614905095945050505050565b600060606040518060400160405280601c81526020017f19457468657265756d205369676e6564204d6573736167653a0a333200000000815250905060008180519060200120905060018187878760405160008152602001604052604051808581526020018460ff1681526020018381526020018281526020019450505050506020604051602081039080840390855afa158015610222573d6000803e3d6000fd5b505050602060405103519250505094935050505056fea2646970667358221220a5d333d95513f1efe8fc24cafc1169b669b0852c78304b77cb99b8e085d85c8664736f6c634300060c0033",
  "immutableReferences": {},
  "source": "pragma solidity  >=0.6.0 <=0.7.4;\r\n\r\ncontract Validator {//데이터 검증, 사용자가 서명한 올바른데이터인지 확인 \r\n  function recoverAddress(bytes32 msgHash, uint8 v, bytes32 r, bytes32 s) public view returns(address) {\r\n      bytes memory prefix = \"\\x19Ethereum Signed Message:\\n32\";\r\n      bytes32 prefixedHash = keccak256(prefix);//keccak은 이더리움-SHA-3 해시를 계산해서 bytes32형태로 반환함\r\n      return ecrecover(prefixedHash, v, r, s);//ecrecover 타원 곡선 서명으로부터 address와 연관된 공개키를 복구하며\r\n      //오류시엔 0을 반환함 \r\n  }\r\n  function verify(address addr, bytes32 msgHash, uint8 v, bytes32 r, bytes32 s) public view returns(bool) {\r\n      return addr == recoverAddress(msgHash, v, r, s);\r\n  }\r\n}",
  "sourcePath": "C:/Users/Android/AndroidStudioProjects/SejongBlockChain/contract/contracts/Validator.sol",
  "compiler": {
    "name": "solc",
    "version": "0.6.12+commit.27d51765.Emscripten.clang"
  },
  "schemaVersion": "3.3.3",
  "updatedAt": "2020-12-22T16:27:28.136Z",
  "devdoc": {
    "kind": "dev",
    "methods": {},
    "version": 1
  },
  "userdoc": {
    "kind": "user",
    "methods": {},
    "version": 1
  }
}